:100000000C9462000C9435040C940E040C948A0039
:100010000C948A000C948A000C948A000C948A0038
:100020000C948A000C948A000C948A000C948A0028
:100030000C948A000C948A000C948A000C948A0018
:100040000C946C030C948A000C94DC030C94B6039F
:100050000C948A000C948A000C948A000C948A00F8
:100060000C948A000C948A000000000024002700F1
:100070002A0000000000250028002B0000000000DE
:1000800023002600290004040404040404040202DA
:100090000202020203030303030301020408102007
:1000A0004080010204081020010204081020000012
:1000B0000008000201000003040700000000000027
:1000C0000000D40511241FBECFEFD8E0DEBFCDBFA6
:1000D00021E0A6E3B1E001C01D92A53EB207E1F721
:1000E00011E0A0E0B1E0E6E5FCE002C005900D9271
:1000F000A633B107D9F710E0C2E6D0E004C02197DB
:10010000FE010E942306C136D107C9F70E945C0494
:100110000C9429060C9400008091390190913A01C9
:10012000A0913B01B0913C010196A11DB11D8093AE
:10013000390190933A01A0933B01B0933C0181E0D7
:10014000809336010895AF92BF92CF92DF92EF92E3
:10015000FF920F931F93CF93DF936C017B018B0171
:10016000040F151FEB015E01AE18BF08C017D107C1
:1001700059F06991D601ED91FC910190F081E02D4B
:10018000C6010995892B79F7C501DF91CF911F91A0
:100190000F91FF90EF90DF90CF90BF90AF900895B8
:1001A000FC01538D448D252F30E0842F90E0821B7D
:1001B000930B541710F0CF96089501970895FC0102
:1001C000918D828D981761F0A28DAE0FBF2FB11D5A
:1001D0005D968C91928D9F5F9F73928F90E00895B2
:1001E0008FEF9FEF0895FC01918D828D981731F06C
:1001F000828DE80FF11D858D90E008958FEF9FEFC0
:100200000895FC01918D228D892F90E0805C9F4F95
:10021000821B91098F739927089588E491E00E94C9
:10022000010121E0892B09F420E0822F089580E06C
:1002300090E0892B29F00E940D0181110C9400009F
:100240000895FC01A48DA80FB92FB11DA35ABF4F6B
:100250002C91848D90E001968F739927848FA689C5
:10026000B7892C93A089B1898C91837080648C9319
:10027000938D848D981306C00288F389E02D8081C8
:100280008F7D80830895EF92FF920F931F93CF93FA
:10029000DF93EC0181E0888F9B8D8C8D98131AC0C1
:1002A000E889F989808185FF15C09FB7F894EE89A8
:1002B000FF896083E889F989808183708064808305
:1002C0009FBF81E090E0DF91CF911F910F91FF9050
:1002D000EF900895F62E0B8D10E00F5F1F4F0F73F8
:1002E0001127E02E8C8D8E110CC00FB607FCFACFB3
:1002F000E889F989808185FFF5CFCE010E9421012F
:10030000F1CFEB8DEC0FFD2FF11DE35AFF4FF08283
:100310009FB7F8940B8FEA89FB8980818062CFCFE9
:10032000CF93DF93EC01888D8823B9F0AA89BB892C
:10033000E889F9898C9185FD03C0808186FD0DC017
:100340000FB607FCF7CF8C9185FFF2CF808185FF38
:10035000EDCFCE010E942101E9CFDF91CF91089529
:10036000833081F028F4813099F08230A9F008952B
:100370008730A9F08830C9F08430B1F480918000D2
:100380008F7D03C0809180008F77809380000895D7
:1003900084B58F7784BD089584B58F7DFBCF809120
:1003A000B0008F778093B00008958091B0008F7D6A
:1003B000F9CF1F93CF93DF93282F30E0F901E25557
:1003C000FF4F8491F901E656FF4FD491F901EA57A6
:1003D000FF4FC491CC23A9F0162F81110E94B001C8
:1003E000EC2FF0E0EE0FFF1FEE58FF4FA591B491F8
:1003F0008FB7F894EC91111108C0D095DE23DC93EF
:100400008FBFDF91CF911F910895DE2BF8CFCF934F
:10041000DF9390E0FC01E656FF4F24918A579F4FEF
:10042000FC0184918823D1F090E0880F991FFC0192
:10043000E859FF4FA591B491FC01EE58FF4FC591CB
:10044000D49161110EC09FB7F8948C91E22FE09582
:100450008E238C932881E223E8839FBFDF91CF9185
:1004600008958FB7F894EC91E22BEC938FBFF6CF01
:100470000895FC0101900020E9F73197AF01481B76
:10048000590BBC0188E491E00C94A3008F929F92D9
:10049000AF92BF920F931F93CF93DF93CDB7DEB789
:1004A000A1970FB6F894DEBF0FBECDBF19A24230A0
:1004B00008F44AE08E010F5D1F4F842E912CB12C61
:1004C000A12CA50194010E940106E62FB901CA01E1
:1004D000EA30F4F4E05DD801EE938D01232B242B58
:1004E000252B79F790E080E0109719F0CD010E945C
:1004F0003902A1960FB6F894DEBF0FBECDBFDF91D3
:10050000CF911F910F91BF90AF909F908F900895C2
:10051000E95CE1CFCF92DF92EF92FF92CF93DF932E
:100520006B017C016DE288E491E00E944301EC01E3
:1005300066277727CB016C197D098E099F094AE050
:100540000E9446028C0F9D1FDF91CF91FF90EF908C
:10055000DF90CF900895CF92DF92EF92FF921F939A
:10056000CF93DF938091390190913A01A0913B01A3
:10057000B0913C01EC0183EBC82E80E0D82E9AEAC2
:10058000E92EF12C1AEA809136018823B1F1CE01CF
:100590000196092E000CAA0BBB0B4091390150911A
:1005A0003A0160913B0170913C0184179507A607C1
:1005B000B70709F46CC04091390150913A0160913C
:1005C0003B0170913C0184179507A607B7072CF7EC
:1005D0004091390150913A0160913B0170913C0189
:1005E00041505109610971094093390150933A0111
:1005F00060933B0170933C01D0CF61E085E00E94A5
:100600000702F6018491833041F148F48130B9F05A
:100610008230F1F061E085E00E94D90114C087309A
:1006200031F1883061F18430A9F7809180008062D7
:1006300080938000F0928B00E0928A0004C084B521
:10064000806884BD17BD60E086E00E94D9019BCF21
:1006500084B5806284BD18BDF6CF8091800080682B
:1006600080938000F0928900E0928800ECCF809126
:10067000B00080688093B0001093B300E4CF809105
:10068000B00080628093B0001093B400DCCF609122
:10069000390170913A0180913B0190913C0197FFA3
:1006A00017C00E948A0286E191E00E9439021092EE
:1006B000360160E085E00E94D90160E086E0DF91CC
:1006C000CF911F91FF90EF90DF90CF900C94D901C4
:1006D0004AE00E944602E7CF1F920F920FB60F9298
:1006E00011242F933F938F939F93AF93BF93809148
:1006F000440190914501A0914601B091470130918C
:10070000430123E0230F2D3758F50196A11DB11D9C
:10071000209343018093440190934501A0934601A7
:10072000B093470180913F0190914001A091410118
:10073000B09142010196A11DB11D80933F0190939C
:100740004001A0934101B0934201BF91AF919F91AD
:100750008F913F912F910F900FBE0F901F90189582
:1007600026E8230F0296A11DB11DD2CF1F920F9232
:100770000FB60F9211242F933F934F935F936F9374
:100780007F938F939F93AF93BF93EF93FF9388E4EF
:1007900091E00E942101FF91EF91BF91AF919F9154
:1007A0008F917F916F915F914F913F912F910F901A
:1007B0000FBE0F901F9018951F920F920FB60F92B9
:1007C00011242F938F939F93EF93FF93E091580100
:1007D000F09159018081E0915E01F0915F0182FD0D
:1007E0001BC09081809161018F5F8F7320916201A6
:1007F000821741F0E0916101F0E0E85BFE4F958FD8
:1008000080936101FF91EF919F918F912F910F90B4
:100810000FBE0F901F9018958081F4CF1F920F92FA
:100820000FB60F9211242F933F934F935F936F93C3
:100830007F938F939F93AF93BF93EF93FF93E09139
:100840000201F09103010995FF91EF91BF91AF91E2
:100850009F918F917F916F915F914F913F912F91D8
:100860000F900FBE0F901F9018951F920F920FB60A
:100870000F9211242F933F934F935F936F937F9326
:100880008F939F93AF93BF93EF93FF93E0910001FA
:10089000F09101010995FF91EF91BF91AF919F9167
:1008A0008F917F916F915F914F913F912F910F9019
:1008B0000FBE0F901F901895CF93DF9300D000D0FC
:1008C0001F92CDB7DEB7789484B5826084BD84B5BD
:1008D000816084BD85B5826085BD85B5816085BD3B
:1008E00080916E00816080936E00109281008091F3
:1008F000810082608093810080918100816080937B
:100900008100809180008160809380008091B1009F
:1009100084608093B1008091B00081608093B000CA
:1009200080917A00846080937A0080917A0082605E
:1009300080937A0080917A00816080937A00809120
:100940007A00806880937A001092C100E09158018B
:10095000F091590182E08083E0915401F0915501BA
:100960001082E0915601F09157018FEC8083109234
:100970006001E0915C01F0915D0186E08083E0918F
:100980005A01F0915B01808180618083E0915A017E
:10099000F0915B01808188608083E0915A01F09141
:1009A0005B01808180688083E0915A01F0915B0156
:1009B00080818F7D80838AE090E0A0E0B0E080932A
:1009C0004C0190934D01A0934E01B0934F0160E014
:1009D00082E00E94070261E085E00E94070261E078
:1009E00086E00E940702E0EBF0E08491ECE9F0E0A1
:1009F00004910D83E8E8F0E014911983112309F4C0
:100A000066C081110E94B0010981E02FF0E0EE0F75
:100A1000FF1FE458FF4FA591B491EC911D81E12394
:100A200091E080E009F490E09093370180933801E1
:100A300089E191E00E94390260913701709138019B
:100A4000072E000C880B990B97FF44C00E948A0266
:100A500086E191E00E9439028CE890E090930101D8
:100A600080930001809169008C7F81608093690090
:100A7000E89A8AE0B82E90E0292E90E0392E109264
:100A80003E0110923D0188E491E00E940101181698
:100A900019060CF07DC088E491E00E94DF008A30E6
:100AA0009105E1F08F3F9807B1F340913D015091DE
:100AB0003E01B49E9001B59E300D112420533109A2
:100AC000820F931F90933E0180933D01E4CF90E00D
:100AD00080E0AACF4AE00E944602BACF10E000E0D0
:100AE00080913D0190913E010817190708F050C010
:100AF0000E94AB02A02E912E2801012E000C660848
:100B000077088091390190913A01A0913B01B09111
:100B10003C010F5F1F4F481659066A067B0601F31A
:100B20008091390190913A01A0913B01B0913C0133
:100B3000481659066A067B06ECF2C12CD12C7601C8
:100B4000B701A6018091390190913A01A0913B0132
:100B5000B0913C0189839A83AB83BC839FEFC91A10
:100B6000D90AE90AF90A9301820189819A81AB8144
:100B7000BC81081B190B2A0B3B0B4017510762075E
:100B800073071CF40E94AB02DBCF0A2D192DB2CFE4
:100B90002114310409F473CF0E940D01882309F454
:100BA0006ECF0E9400006BCFE8E4F1E01382128266
:100BB00088EE93E0A0E0B0E084839583A683B783BA
:100BC00088E091E09183808385EC90E0958784872D
:100BD00084EC90E09787868780EC90E0918B808B07
:100BE00081EC90E0938B828B82EC90E0958B848BF0
:100BF00086EC90E0978B868B118E128E138E148E5E
:100C00000895A1E21A2EAA1BBB1BFD010DC0AA1F4D
:100C1000BB1FEE1FFF1FA217B307E407F50720F065
:100C2000A21BB30BE40BF50B661F771F881F991FE0
:100C30001A9469F760957095809590959B01AC0129
:100C4000BD01CF010895EE0FFF1F0590F491E02D37
:060C50000994F894FFCFA7
:100C560038023802000000004301A300D0009001D2
:100C66000101DF00F3000D0A004669727374206308
:100C76006F6E646974696F6E206F6620656E636F50
:060C86006465723A2000D3
:00000001FF
