:100000000C9462000C944D070C9426070C948A0003
:100010000C948A000C948A000C948A000C948A0038
:100020000C948A000C948A000C948A000C948A0028
:100030000C948A000C948A000C948A000C948A0018
:100040000C94DC060C948A000C94AA060C9484068A
:100050000C948A000C948A000C948A000C948A00F8
:100060000C948A000C948A000000000024002700F1
:100070002A0000000000250028002B0000000000DE
:1000800023002600290004040404040404040202DA
:100090000202020203030303030301020408102007
:1000A0004080010204081020010204081020000012
:1000B0000008000201000003040700000000000027
:1000C0000000740711241FBECFEFD8E0DEBFCDBF04
:1000D00022E0AEE5B1E001C01D92A934B207E1F71C
:1000E00011E0A0E0B1E0EAEFFCE102C005900D9262
:1000F000AE35B107D9F710E0C2E6D0E004C02197D1
:10010000FE010E947A0CC136D107C9F70E94A107EF
:100110000C947B0E0C940000AF92BF92CF92DF92B2
:10012000EF92FF920F931F93CF93DF936C017B01AC
:100130008B01040F151FEB015E01AE18BF08C0173D
:10014000D10759F06991D601ED91FC910190F081B0
:10015000E02DC6010995892B79F7C501DF91CF9173
:100160001F910F91FF90EF90DF90CF90BF90AF90D5
:100170000895FC01538D448D252F30E0842F90E0AD
:10018000821B930B541710F0CF9608950197089592
:10019000FC01918D828D981761F0A28DAE0FBF2F5B
:1001A000B11D5D968C91928D9F5F9F73928F90E0B1
:1001B00008958FEF9FEF0895FC01918D828D981720
:1001C00031F0828DE80FF11D858D90E008958FEF5D
:1001D0009FEF08952FB7F89480916A0190916B0179
:1001E000A0916C01B0916D012FBF80937601909327
:1001F0007701A0937801B09379018EE691E00E9497
:10020000DC0097FF26C02FB7F89480916A01909187
:100210006B01A0916C01B0916D012FBF40917601EF
:10022000509177016091780170917901841B950B51
:10023000A60BB70B4091720150917301609174014C
:100240007091750184179507A607B707B0F28FEF75
:100250009FEF0895FC01918D228D892F90E0805CA5
:100260009F4F821B91098F73992708958EE691E025
:100270000E942A0121E0892B09F420E0822F0895B1
:1002800080E090E0892B29F00E94360181110C94C6
:1002900000000895FC01A48DA80FB92FB11DA35A29
:1002A000BF4F2C91848D90E001968F739927848F96
:1002B000A689B7892C93A089B1898C9183708064B9
:1002C0008C93938D848D981306C00288F389E02D5A
:1002D00080818F7D80830895EF92FF920F931F930B
:1002E000CF93DF93EC0181E0888F9B8D8C8D9813E9
:1002F0001AC0E889F989808185FF15C09FB7F894F5
:10030000EE89FF896083E889F98980818370806440
:1003100080839FBF81E090E0DF91CF911F910F918B
:10032000FF90EF900895F62E0B8D10E00F5F1F4F9A
:100330000F731127E02E8C8D8E110CC00FB607FCA9
:10034000FACFE889F989808185FFF5CFCE010E9437
:100350004A01F1CFEB8DEC0FFD2FF11DE35AFF4F5A
:10036000F0829FB7F8940B8FEA89FB8980818062C5
:10037000CFCFCF93DF93EC01888D8823B9F0AA8982
:10038000BB89E889F9898C9185FD03C0808186FD50
:100390000DC00FB607FCF7CF8C9185FFF2CF80819F
:1003A00085FFEDCFCE010E944A01E9CFDF91CF91C9
:1003B0000895833081F028F4813099F08230A9F0DB
:1003C00008958730A9F08830C9F08430B1F4809165
:1003D00080008F7D03C0809180008F7780938000A4
:1003E000089584B58F7784BD089584B58F7DFBCF44
:1003F0008091B0008F778093B00008958091B00015
:100400008F7DF9CF1F93CF93DF93282F30E0F90131
:10041000E255FF4F8491F901E656FF4FD491F9015F
:10042000EA57FF4FC491CC23A9F0162F81110E94E7
:10043000D901EC2FF0E0EE0FFF1FEE58FF4FA59112
:10044000B4918FB7F894EC91111108C0D095DE23C8
:10045000DC938FBFDF91CF911F910895DE2BF8CFF2
:10046000CF93DF9390E0FC01E656FF4F24918A572B
:100470009F4FFC0184918823D1F090E0880F991F51
:10048000FC01E859FF4FA591B491FC01EE58FF4FD4
:10049000C591D49161110EC09FB7F8948C91E22F51
:1004A000E0958E238C932881E223E8839FBFDF9120
:1004B000CF9108958FB7F894EC91E22BEC938FBF16
:1004C000F6CF1F93CF93DF93182FEB0161E00E94CB
:1004D0003002209739F460E0812FDF91CF911F9196
:1004E0000C940202CF3FD10511F461E0F5CFE12F6A
:1004F000F0E0E255FF4FE491E33031F140F4E130B8
:10050000B1F0E230E1F0C038D1057CF7E4CFE7305C
:1005100029F1E83059F1E430B1F780918000806230
:1005200080938000D0938B00C0938A0004C084B570
:10053000806884BDC7BDDF91CF911F91089584B5B8
:10054000806284BDC8BDF7CF8091800080688093B1
:100550008000D0938900C0938800EDCF8091B000D7
:1005600080688093B000C093B300E5CF8091B00065
:1005700080628093B000C093B400DDCF3FB7F894A1
:1005800080915F0190916001A0916101B091620141
:1005900026B5A89B05C02F3F19F00196A11DB11DDE
:1005A0003FBFBA2FA92F982F8827BC01CD01620F1A
:1005B000711D811D911D42E0660F771F881F991FD5
:1005C0004A95D1F708950895809165018823A1F097
:1005D0008091660190916701A0916801B0916901D5
:1005E0000196A11DB11D8093660190936701A093B0
:1005F0006801B09369010895809166019091670147
:10060000A0916801B09169010197A109B109EBCFEF
:10061000FC0101900020E9F73197AF01481B590B0D
:10062000BC018EE691E00C948C008F929F92AF9269
:10063000BF920F931F93CF93DF93CDB7DEB7A197F0
:100640000FB6F894DEBF0FBECDBF19A2423008F43A
:100650004AE08E010F5D1F4F842E912CB12CA12CEE
:10066000A50194010E94580CE62FB901CA01EA3095
:10067000F4F4E05DD801EE938D01232B242B252B80
:1006800079F790E080E0109719F0CD010E940803FF
:10069000A1960FB6F894DEBF0FBECDBFDF91CF910C
:1006A0001F910F91BF90AF909F908F900895E95C3C
:1006B000E1CFCF92DF92EF92FF92CF93DF936B0166
:1006C0007C016DE28EE691E00E946C01EC016627F0
:1006D0007727CB016C197D098E099F094AE00E949A
:1006E00015038C0F9D1FDF91CF91FF90EF90DF904E
:1006F000CF9008954F925F926F927F928F929F92C8
:10070000AF92BF92CF92DF92EF92FF920F931F931F
:10071000CF936B017C01742EAC019B010E94530CA2
:10072000882399F08EE191E0CF911F910F91FF9076
:10073000EF90DF90CF90BF90AF909F908F907F9081
:100740006F905F904F900C94080346015701E89416
:10075000B7F82FEF3FEF4FE75FE7C501B4010E9405
:10076000530C81110DC02FEF3FEF4FE75FE7C5013D
:10077000B4010E94C40918161CF482E291E0D4CF9F
:100780002FEF3FEF4FE75FE4C701B6010E944E0C29
:1007900018161CF486E291E0C7CF2FEF3FEF4FE72A
:1007A0005FECC701B6010E94C40987FDF3CF20E0CA
:1007B00030E0A901C701B6010E94C40910E000E0C1
:1007C00087FF0AC06DE28EE691E00E946C018C0109
:1007D000F7FAF094F7F8F094C0E060E070E080E0A1
:1007E0009FE37C1641F020E030E040E251E40E94BB
:1007F000A60BCF5FF6CFA70196010E943A0B2B0103
:100800003C010E941F0C4B015C014AE00E94150351
:100810007C01E00EF11ECC23C1F1C501B4010E94A0
:10082000C9099B01AC01C301B2010E94390B4B0104
:100830005C016EE28EE691E00E946C01E80EF91E0A
:10084000C15018F120E030E040E251E4C501B401AC
:100850000E942A0A2B013C010E941F0C4B01B12C63
:10086000A12C4AE0C501B4010E941503E80EF91E4F
:10087000C501B4010E94C9099B01AC01C301B201C9
:100880000E94390B4B015C01DBCFC701CF911F9157
:100890000F91FF90EF90DF90CF90BF90AF909F901F
:1008A0008F907F906F905F904F900895FC018081B2
:1008B0009181009711F00C941C0D0895EF92FF9216
:1008C0000F931F93CF93DF93EC017B018A01888103
:1008D0009981009729F02A813B812417350788F4F4
:1008E000B8016F5F7F4F0E94A50D009791F099832B
:1008F00088831B830A832C813D81232B11F4FC0107
:1009000010821D830C83B701888199810E94740E27
:100910000CC088819981009711F00E941C0D1982EA
:1009200018821D821C821B821A82CE01DF91CF9118
:100930001F910F91FF90EF9008952F923F924F9249
:100940005F926F927F928F929F92AF92BF92CF925F
:10095000DF92EF92FF920F931F93CF93DF93CDB768
:10096000DEB763970FB6F894DEBF0FBECDBFE09140
:100970002802EE2309F4C4C13B8B2A8B598B488B88
:100980006C877D878E879F878FB7F89420916A0147
:1009900030916B0140916C0150916D01288739872E
:1009A0004A875B878FBF80910B0290910C02A091C8
:1009B0000D02B0910E02281B390B4A0B5B0BCA01CA
:1009C000B9010E94C9094B015C012C853D854E850A
:1009D0005F85609141027091420280914302909143
:1009E00044020E94390B6B017C01AC019B01C501E3
:1009F000B4010E942A0A20911F02309120024091E6
:100A00002102509122020E943A0B162F072F382EF6
:100A1000292E862F902FA32DB22D80931F02909305
:100A20002002A0932102B0932202309127023F833B
:100A3000332309F442C02DEC3CEC4CE85FE36091B9
:100A4000390270913A0280913B0290913C020E94DF
:100A50002A0A2B013C019B01AC01612F702F832DD1
:100A6000922D0E94C40987FD1EC02DEC3CEC4CE881
:100A70005FE360913D0270913E0280913F02909150
:100A800040020E942A0A2B013C019B01AC01612F0C
:100A9000702F832D922D0E944E0C181624F0412E9B
:100AA000502E632C722CC201D30180931F029093AD
:100AB0002002A0932102B093220220911F023091C4
:100AC0002002409121025091220260912D027091EA
:100AD0002E0280912F02909130020E942A0A2B014F
:100AE0003C012091290230912A0240912B02509121
:100AF0002C02C701B6010E942A0A9B01AC01C30166
:100B0000B2010E943A0B2B013C012091130230915B
:100B100014024091150250911602C701B6010E94BD
:100B2000390BA50194010E94A60B2091310230914E
:100B3000320240913302509134020E942A0A9B01F2
:100B4000AC01C301B2010E943A0B209135023091F1
:100B5000360240913702509138020E94A60B762E41
:100B6000872E982EA92E4F81442309F4C4C060908B
:100B70003902B0903A0200913B0210913C02262DBE
:100B80003B2DA8010E94C40987FD17C060903D025B
:100B9000B0903E0200913F0210914002262D3B2D65
:100BA000A801672D782D892D9A2D0E944E0C1816BC
:100BB00024F0672CB82C092D1A2D862D9B2DD801D9
:100BC00080930F0290931002A0931102B09312022F
:100BD000C0921302D0921402E0921502F092160213
:100BE00088859985AA85BB8580930B0290930C021A
:100BF000A0930D02B0930E02A889B98914968D9125
:100C00009C911597892B09F455C068E571E08D9189
:100C10009C910E946B0E892B09F04CC01A8219829C
:100C20001C821B821E821D82EA89FB896081718180
:100C30006115710531F044815581CE0101960E9404
:100C40005E0442E06C857D858E859F850E947A03D7
:100C50008D819E81892BB9F06EE471E089819A8142
:100C60000E946B0E892B79F48AE291E00E940803BE
:100C700060910F0270911002809111029091120206
:100C800042E00E947A038AE291E00E9408036091A8
:100C9000410270914202809143029091440242E0ED
:100CA0000E947A038CE291E00E940803CE01019633
:100CB0000E94560460910F027091100280911102FF
:100CC0009091120263960FB6F894DEBF0FBECDBFAF
:100CD000DF91CF911F910F91FF90EF90DF90CF9018
:100CE000BF90AF909F908F907F906F905F904F904C
:100CF0003F902F900895862F982DA92DBA2D60CF63
:100D000060E070E0CB01DECF1F920F920FB60F9222
:100D100011242F933F934F935F936F937F938F9300
:100D20009F93AF93BF93EF93FF938EE691E00E9462
:100D30004A01FF91EF91BF91AF919F918F917F9168
:100D40006F915F914F913F912F910F900FBE0F9038
:100D50001F9018951F920F920FB60F9211242F9388
:100D60008F939F93EF93FF93E0917E01F0917F012A
:100D70008081E0918401F091850182FD1BC090810A
:100D8000809187018F5F8F7320918801821741F0D6
:100D9000E0918701F0E0E259FE4F958F8093870143
:100DA000FF91EF919F918F912F910F900FBE0F9018
:100DB0001F9018958081F4CF1F920F920FB60F925B
:100DC00011242F933F938F939F93AF93BF93809161
:100DD0006A0190916B01A0916C01B0916D0130910D
:100DE0005E0123E0230F2D3758F50196A11DB11D9B
:100DF00020935E0180936A0190936B01A0936C0134
:100E0000B0936D0180915F0190916001A0916101AB
:100E1000B09162010196A11DB11D80935F01909375
:100E20006001A0936101B0936201BF91AF919F9166
:100E30008F913F912F910F900FBE0F901F9018959B
:100E400026E8230F0296A11DB11DD2CF1F920F924B
:100E50000FB60F9211242F933F934F935F936F938D
:100E60007F938F939F93AF93BF93EF93FF93E09103
:100E70000201F09103010995FF91EF91BF91AF91AC
:100E80009F918F917F916F915F914F913F912F91A2
:100E90000F900FBE0F901F9018951F920F920FB6D4
:100EA0000F9211242F933F934F935F936F937F93F0
:100EB0008F939F93AF93BF93EF93FF93E0910001C4
:100EC000F09101010995FF91EF91BF91AF919F9131
:100ED0008F917F916F915F914F913F912F910F90E3
:100EE0000FBE0F901F901895EEE6F1E0138212826C
:100EF00088EE93E0A0E0B0E084839583A683B78377
:100F000080E191E09183808385EC90E095878487F0
:100F100084EC90E09787868780EC90E0918B808BC3
:100F200081EC90E0938B828B82EC90E0958B848BAC
:100F300086EC90E0978B868B118E128E138E148E1A
:100F40000895CF93DF93CDB7DEB72C970FB6F89403
:100F5000DEBF0FBECDBF789484B5826084BD84B5FA
:100F6000816084BD85B5826085BD85B5816085BDA4
:100F700080916E00816080936E001092810080915C
:100F800081008260809381008091810081608093E4
:100F90008100809180008160809380008091B10009
:100FA00084608093B1008091B00081608093B00034
:100FB00080917A00846080937A0080917A008260C8
:100FC00080937A0080917A00816080937A0080918A
:100FD0007A00806880937A001092C100E0917E01CF
:100FE000F0917F0182E08083E0917A01F0917B01B2
:100FF0001082E0917C01F0917D018FEC8083109252
:101000008601E0918201F091830186E08083E09186
:101010008001F0918101808180618083E091800175
:10102000F0918101808188608083E0918001F0915E
:101030008101808180688083E0918001F09181014D
:1010400080818F7D808385E090E0A0E0B0E0809398
:10105000720190937301A0937401B093750160E0E5
:1010600084E00E94300261E085E00E94300261E08D
:1010700086E00E94300280E090E0A0E2B1E480933C
:10108000350290933602A0933702B093380281E084
:101090008093280240E050E060E771E44093290229
:1010A00050932A0260932B0270932C0210922D020F
:1010B00010922E0210922F021092300240E050E067
:1010C0006AEF74E44093310250933202609333022A
:1010D0007093340240E050E06FE773EC40933902C4
:1010E00050933A0260933B0270933C0240E050E020
:1010F0006FE773E440933D0250933E0260933F02DA
:101100007093400280932702E2EBF0E08491EEE9D5
:10111000F0E00491EAE8F0E01491112309F441C0F1
:1011200081110E94D901E12FF0E0EE0FFF1FE4587A
:10113000FF4FA591B491EC91E02391E080E009F498
:1011400090E090936301809364018FE291E00E94AC
:1011500008036091630170916401072E000C880BF5
:10116000990B97FF21C00E94590300E010E0BB24B7
:10117000B3948EE691E00E942A01181619060CF02D
:101180005DC00E94EA00FC0197FDDCC08D32910534
:1011900079F0C0970A9760F08EE691E00E94C8004F
:1011A000F0CF90E080E0CDCF4AE00E941503DDCF84
:1011B000C12CD12C7601A12CE130F105D9F0ED3212
:1011C000F10509F4BCC0CF01C0970A9798F4AAE0D2
:1011D000B0E0A70196010E94E80A6F01FF0FEE0838
:1011E000FF08C60ED71EE81EF91E20E3C21AD1085A
:1011F000E108F1088EE691E00E94C8000E94EA0032
:10120000FC01C0970A97C0F2E130F105A9F2AA20CB
:1012100041F0F094E094D094C094C11CD11CE11C26
:10122000F11CB60190E080E00E94C9096093410280
:101230007093420280934302909344021A8219826F
:101240001C821B821E821D8249E050E06CE471E02A
:10125000CE0101960E945E0418861F821A861986A6
:101260001C861B8647E050E066E571E0CE010796DC
:101270000E945E046091660170916701809168012F
:10128000909169010E94CB099E012F5F3F4FAE01F3
:10129000495F5F4F0E949D040E94180C6B014B0137
:1012A0007093050160930401CE0107960E945604D5
:1012B000CE0101960E9456041C141D040CF04DC072
:1012C000B092650185E6C816D1040CF43FC0B601A2
:1012D00086E00E94610260E085E00E9402020E94B6
:1012E000BE022B013C018AE0C82ED12CE12CF12C4E
:1012F0000E94BE026419750986099709683E734009
:1013000081059105A8F381E0C81AD108E108F10828
:1013100028EE420E23E0521E611C711CC114D10440
:10132000E104F10429F70115110509F422CF0E9407
:101330003601882309F41DCF0E9400001ACFAA2489
:10134000A39458CFC12CD12C76016BCF60E085E0FF
:101350000E94020260E086E0C0CF10926501D19445
:10136000C194D108B6010D2C000C880B990B4AE0F2
:101370000E9415032CE982162FEF92063CF7B60166
:1013800085E00E946102E6CF0E94060A08F481E02F
:101390000895E89409C097FB3EF490958095709568
:1013A00061957F4F8F4F9F4F9923A9F0F92F96E9B1
:1013B000BB279395F695879577956795B795F11126
:1013C000F8CFFAF4BB0F11F460FF1BC06F5F7F4FC3
:1013D0008F4F9F4F16C0882311F096E911C07723D5
:1013E00021F09EE8872F762F05C0662371F096E8DE
:1013F000862F70E060E02AF09A95660F771F881FAD
:10140000DAF7880F9695879597F90895990F000850
:10141000550FAA0BE0E8FEEF16161706E807F907C6
:10142000C0F012161306E407F50798F0621B730B61
:10143000840B950B39F40A2661F0232B242B252BE2
:1014400021F408950A2609F4A140A6958FEF811D85
:10145000811D08950E943D0A0C94AE0A0E94A00AC4
:1014600038F00E94A70A20F0952311F00C94970AF7
:101470000C949D0A11240C94E20A0E94BF0A70F396
:10148000959FC1F3950F50E0551F629FF001729F29
:10149000BB27F00DB11D639FAA27F00DB11DAA1F38
:1014A000649F6627B00DA11D661F829F2227B00D85
:1014B000A11D621F739FB00DA11D621F839FA00D10
:1014C000611D221F749F3327A00D611D231F849F60
:1014D000600D211D822F762F6A2F11249F575040B7
:1014E0009AF0F1F088234AF0EE0FFF1FBB1F661F32
:1014F000771F881F91505040A9F79E3F510580F0FB
:101500000C94970A0C94E20A5F3FE4F3983ED4F3FC
:10151000869577956795B795F795E7959F5FC1F79E
:10152000FE2B880F911D9695879597F9089597F949
:101530009F6780E870E060E008959FEF80EC089579
:1015400000240A94161617061806090608950024A2
:101550000A9412161306140605060895092E03941C
:10156000000C11F4882352F0BB0F40F4BF2B11F490
:1015700060FF04C06F5F7F4F8F4F9F4F089557FDEF
:101580009058440F551F59F05F3F71F04795880FF1
:1015900097FB991F61F09F3F79F087950895121688
:1015A00013061406551FF2CF4695F1DF08C0161634
:1015B00017061806991FF1CF8695710561050894E5
:1015C0000895E894BB2766277727CB0197F90895FC
:1015D0000E942A0BA59F900DB49F900DA49F800D93
:1015E000911D112408952F923F924F925F926F9216
:1015F0007F928F929F92AF92BF92CF92DF92EF92A3
:10160000FF920F931F93CF93DF93CDB7DEB7CA1B23
:10161000DB0B0FB6F894DEBF0FBECDBF09942A884E
:10162000398848885F846E847D848C849B84AA84F6
:10163000B984C884DF80EE80FD800C811B81AA8183
:10164000B981CE0FD11D0FB6F894DEBF0FBECDBF4E
:10165000ED010895A29FB001B39FC001A39F700D3B
:10166000811D1124911DB29F700D811D1124911DAA
:1016700008955058BB27AA270E94510B0C94AE0A1C
:101680000E94A00A38F00E94A70A20F039F49F3F78
:1016900019F426F40C949D0A0EF4E095E7FB0C94E3
:1016A000970AE92F0E94BF0A58F3BA176207730717
:1016B0008407950720F079F4A6F50C94E10A0EF45E
:1016C000E0950B2EBA2FA02D0B01B90190010C0152
:1016D000CA01A0011124FF27591B99F0593F50F46A
:1016E000503E68F11A16F040A22F232F342F4427C2
:1016F000585FF3CF469537952795A795F0405395BA
:10170000C9F77EF41F16BA0B620B730B840BBAF089
:101710009150A1F0FF0FBB1F661F771F881FC2F7F4
:101720000EC0BA0F621F731F841F48F48795779508
:101730006795B795F7959E3F08F0B0CF9395880FC2
:1017400008F09927EE0F9795879508950E94BA0B98
:101750000C94AE0A0E94A70A58F00E94A00A40F01A
:1017600029F45F3F29F00C94970A51110C94E20A76
:101770000C949D0A0E94BF0A68F39923B1F3552384
:1017800091F3951B550BBB27AA2762177307840794
:1017900038F09F5F5F4F220F331F441FAA1FA9F32A
:1017A00035D00E2E3AF0E0E832D091505040E69518
:1017B000001CCAF72BD0FE2F29D0660F771F881F79
:1017C000BB1F261737074807AB07B0E809F0BB0B6C
:1017D000802DBF01FF2793585F4F3AF09E3F510580
:1017E00078F00C94970A0C94E20A5F3FE4F3983E79
:1017F000D4F3869577956795B795F7959F5FC9F769
:10180000880F911D9695879597F90895E1E0660FE9
:10181000771F881FBB1F621773078407BA0720F062
:10182000621B730B840BBA0BEE1F88F7E0950895CB
:101830000E941F0C6894B1110C94E20A08950E9452
:10184000C70A88F09F5798F0B92F9927B751B0F081
:10185000E1F0660F771F881F991F1AF0BA95C9F734
:1018600014C0B13091F00E94E10AB1E008950C94E7
:10187000E10A672F782F8827B85F39F0B93FCCF39A
:10188000869577956795B395D9F73EF490958095B1
:10189000709561957F4F8F4F9F4F08950E94060A64
:1018A00008F48FEF08950E94060A880B990B08959B
:1018B000A1E21A2EAA1BBB1BFD010DC0AA1FBB1F54
:1018C000EE1FFF1FA217B307E407F50720F0A21BC6
:1018D000B30BE40BF50B661F771F881F991F1A9433
:1018E00069F760957095809590959B01AC01BD015D
:1018F000CF010895EE0FFF1F0590F491E02D09949C
:101900000F931F93CF93DF938230910510F482E001
:1019100090E0E0914702F091480230E020E0B0E032
:10192000A0E0309799F42115310509F44AC0281B2D
:10193000390B24303105D8F58A819B8161157105F9
:1019400089F1FB0193838283FE0111C040815181A3
:101950000281138148175907E0F04817590799F495
:10196000109761F012960C93129713961C9332966F
:10197000CF01DF91CF911F910F91089500934702FE
:1019800010934802F4CF2115310551F04217530747
:1019900038F0A901DB019A01BD01DF01F801C1CFD7
:1019A000EF01F9CF9093480280934702CDCFFE011B
:1019B000E20FF31F819391932250310939832883D9
:1019C000D7CF2091450230914602232B41F420913C
:1019D000080130910901309346022093450220917D
:1019E0000601309107012115310541F42DB73EB7AD
:1019F00040910A0150910B01241B350BE0914502E7
:101A0000F0914602E217F307A0F42E1B3F0B2817B4
:101A1000390778F0AC014E5F5F4F2417350748F067
:101A20004E0F5F1F5093460240934502819391935E
:101A30009FCFF0E0E0E09CCFCF93DF930097E9F0F9
:101A4000FC01329713821282A0914702B0914802A2
:101A5000ED0130E020E01097A1F420813181820F68
:101A6000931F20914502309146022817390709F04B
:101A700061C0F0934602E0934502DF91CF91089553
:101A8000EA01CE17DF07E8F54A815B819E01411527
:101A90005105B1F7E901FB83EA8349915991C40FDC
:101AA000D51FEC17FD0761F4808191810296840FA8
:101AB000951FE90199838883828193819B838A831F
:101AC000F0E0E0E012968D919C9113970097B9F5A4
:101AD0002D913C911197CD010296820F931F209179
:101AE0004502309146022817390739F6309751F5EB
:101AF0001092480210924702B0934602A09345020A
:101B0000BCCFD383C28340815181840F951FC817F6
:101B1000D90761F44E5F5F4F88819981480F591F43
:101B2000518340838A819B81938382832115310570
:101B300009F0B0CFF0934802E09347029ECFFD0139
:101B4000DC01C0CF13821282D7CFB0E0A0E0EBEA75
:101B5000FDE00C94F50A8C01009751F4CB010E9432
:101B6000800C8C01C801CDB7DEB7E0E10C94110BFD
:101B7000FC01E60FF71F9C0122503109E217F30721
:101B800008F49DC0D901CD91DC911197C617D707F4
:101B900098F0C530D10530F3CE010497861797072A
:101BA00008F3C61BD70B2297C193D1936D937C93F7
:101BB000CF010E941C0DD6CF5B01AC1ABD0A4C01AF
:101BC0008C0E9D1EA0914702B0914802512C412CD1
:101BD000F12CE12C109731F580914502909146024D
:101BE0008815990509F05CC04616570608F058C0DC
:101BF0008091060190910701009741F48DB79EB73F
:101C000040910A0150910B01841B950BE817F907CD
:101C100008F055C0F0934602E0934502F901718344
:101C20006083A0CF8D919C91119712966C90129722
:101C300013967C901397A815B90559F56C0142E0ED
:101C4000C40ED11CCA14DB0420F1AC014A195B0993
:101C5000DA011296159780F0628273825183408375
:101C6000D9016D937C93E114F10471F0D7011396BF
:101C7000FC93EE93129776CF22968C0F9D1FF9015D
:101C800091838083F301EFCFF0934802E093470202
:101C900069CF4816590608F42C017D01D3019ACF6B
:101CA000CB010E94800C7C01009749F0AE01B80185
:101CB0000E94620EC8010E941C0D870153CF10E0E4
:101CC00000E050CFFB01DC0102C001900D924150B9
:101CD0005040D8F70895FB01DC018D9101908019E7
:101CE0000110D9F3990B0895FB01DC0101900D92CD
:0A1CF0000020E1F70895F894FFCFFB
:101CFA00E302E302FF000000490280000000000046
:101D0A006C018C00B900B9012A01C800DC006E61BF
:101D1A006E00696E66006F7666002C000D0A00463A
:101D2A006972737420636F6E646974696F6E206F71
:101D3A006620656E636F6465723A20006E6F766521
:0E1D4A0072626F7365006E6F67726170680081
:00000001FF
