:100000000C9480000C948F0B0C94680B0C94A8003B
:100010000C94A8000C94A8000C94A8000C94A800C0
:100020000C94A8000C94A8000C94A8000C94A800B0
:100030000C94A8000C94A8000C94A8000C94A800A0
:100040000C941E0B0C94A8000C94EC0A0C94C60A99
:100050000C94A8000C94A8000C94A8000C94A80080
:100060000C94A8000C94A8004E414E494E49545996
:10007000494E46CDCCCC3D0AD7233C17B7D1387773
:10008000CC2B329595E6241FB14F0A000020410089
:1000900000C84200401C4620BCBE4CCA1B0E5AAED3
:1000A000C59D7400000000240027002A0000000005
:1000B00000250028002B00000000080002010000BD
:1000C0000304070000000000000000010204081003
:1000D00020408001020408102001020408102000C2
:1000E0000000002300260029000404040404040482
:1000F0000402020202020203030303030300B60B1D
:1001000011241FBECFEFD8E0DEBFCDBF23E0A0E3B8
:10011000B2E001C01D92A231B207E1F712E0A0E007
:10012000B1E0E6E7F3E202C005900D92A033B1071B
:10013000D9F710E0C0E8D0E004C02197FE010E948A
:10014000A811CF37D107C9F70E94B10C0C94B9118F
:100150000C940000AF92BF92CF92DF92EF92FF9289
:100160000F931F93CF93DF936C017B018B01040FDF
:10017000151FEB015E01AE18BF08C017D10759F07B
:100180006991D601ED91FC910190F081E02DC601BD
:100190000995892B79F7C501DF91CF911F910F91B7
:1001A000FF90EF90DF90CF90BF90AF900895FC014B
:1001B000538D448D252F30E0842F90E0821B930BCC
:1001C000541710F0CF96089501970895FC01918D72
:1001D000828D981761F0A28DAE0FBF2FB11D5D9675
:1001E0008C91928D9F5F9F73928F90E008958FEF17
:1001F0009FEF0895FC01918D828D981731F0828DCB
:10020000E80FF11D858D90E008958FEF9FEF089521
:10021000FC01918D228D892F90E0805C9F4F821B85
:1002200091098F739927089585E492E00E9408014F
:1002300021E0892B09F420E0822F089580E090E0EE
:10024000892B29F00E94140181110C94000008955B
:10025000FC01A48DA80FB92FB11DA35ABF4F2C913B
:10026000848D90E001968F739927848FA689B78932
:100270002C93A089B1898C91837080648C93938D29
:10028000848D981306C00288F389E02D80818F7DCC
:1002900080830895EF92FF920F931F93CF93DF9384
:1002A000EC0181E0888F9B8D8C8D98131AC0E889B2
:1002B000F989808185FF15C09FB7F894EE89FF8981
:1002C0006083E889F98980818370806480839FBF1F
:1002D00081E090E0DF91CF911F910F91FF90EF901F
:1002E0000895F62E0B8D10E00F5F1F4F0F7311272F
:1002F000E02E8C8D8E110CC00FB607FCFACFE8896A
:10030000F989808185FFF5CFCE010E942801F1CFC8
:10031000EB8DEC0FFD2FF11DE35AFF4FF0829FB7DD
:10032000F8940B8FEA89FB8980818062CFCFCF93CD
:10033000DF93EC01888D8823B9F0AA89BB89E8890D
:10034000F9898C9185FD03C0808186FD0DC00FB6B3
:1003500007FCF7CF8C9185FFF2CF808185FFEDCF31
:10036000CE010E942801E9CFDF91CF91089590E05E
:10037000FC01E954FF4F2491FC01E553FF4F3491F8
:10038000FC01E751FF4FE491EE23C9F0222339F03D
:10039000233001F1A8F4213019F1223029F1F0E0E5
:1003A000EE0FFF1FE355FF4FA591B4918FB7F8945F
:1003B000EC91611126C030953E233C938FBF089588
:1003C0002730A9F02830C9F0243049F78091800007
:1003D0008F7D03C0809180008F7780938000DFCF76
:1003E00084B58F7784BDDBCF84B58F7DFBCF8091C3
:1003F000B0008F778093B000D2CF8091B0008F7D16
:10040000F9CF3E2BDACFCF92DF92EF92FF920F938C
:100410001F93CF93DF93CDB7DEB728970FB6F8942D
:10042000DEBF0FBECDBF8830910508F086C0FC014D
:10043000E45EFD4F0C94A81124022B023402390211
:1004400044024B028B02940281E090E09A838983FC
:100450001C821B8206C081E090E09A8389839C8382
:100460008B831E821D820DC01A82198281E090E06A
:10047000F6CF1A82198281E090E09C838B839E8361
:100480008D8318861F8211C01A8219821C821B82DA
:1004900081E090E0F4CF1A8219821C821B8281E0F5
:1004A00090E09E838D8398878F838E010F5F1F4F0F
:1004B0003EEEE32E32E0F32E6E0189E0C80ED11C31
:1004C000F80160810E5F1F4FF7018081F2E0EF0EAF
:1004D000F11C0E94B701C016D10691F78091FA0273
:1004E0009091FB028230910538F0880F991F880F98
:1004F000991F05970197F1F728960FB6F894DEBF7C
:100500000FBECDBFDF91CF911F910F91FF90EF9064
:10051000DF90CF9008951A8219821C821B821E825E
:100520001D8281E090E0BFCF81E090E09A838983D3
:100530001C821B821E821D82B6CF1A82198288CF2E
:100540002091FC023091FD02882359F12F5F3F4F2B
:10055000283031050CF53093FD022093FC02809188
:10056000FC029091FD020E9403028091F60290919C
:10057000F70201969093F7028093F6022091F80219
:100580003091F9028217930734F0821B930B9093FA
:10059000F7028093F60208951092FD021092FC0279
:1005A000DECF2150310937FD1CC03093FD0220936E
:1005B000FC028091FC029091FD020E940302809156
:1005C000F6029091F70201979093F7028093F6025A
:1005D00097FFE1CF2091F8023091F902820F931F2B
:1005E000D6CF87E090E09093FD028093FC02E1CFAC
:1005F000CF93DF9390E0FC01E553FF4F24918751A7
:100600009F4FFC0184918823D1F090E0880F991FBF
:10061000FC01ED55FF4FA591B491FC01E355FF4F4F
:10062000C591D491623071F49FB7F8943C91822FB8
:10063000809583238C93E8812E2B28839FBFDF91A5
:10064000CF9108958FB7F894EC912E2B2C938FBFF8
:10065000F6CF3FB7F8948091410290914202A09169
:100660004302B091440226B5A89B05C02F3F19F064
:100670000196A11DB11D3FBFBA2FA92F982F882722
:10068000BC01CD01620F711D811D911D42E0660FFD
:10069000771F881F991F4A95D1F708958F929F92CF
:1006A000AF92BF92CF92DF92EF92FF926B017C01EB
:1006B0000E9429034B015C01C114D104E104F1043F
:1006C000B9F00E942903681979098A099B09683ED3
:1006D00073408105910580F321E0C21AD108E10839
:1006E000F10888EE880E83E0981EA11CB11CE4CFAF
:1006F000FF90EF90DF90CF90BF90AF909F908F9042
:1007000008950895DC01ED91FD918081ED91FD91B9
:100710009081ED91FD916C9163708E2309F064607E
:100720009F2309F06860EFE9F3E0E60FF11D65959E
:1007300065956D936D917D918D919D91099423C0E7
:100740001AC012C016C010C01EC009C014C013C009
:1007500006C019C009C00DC007C00DC014C062504A
:100760007040804090400BC061507040804090408D
:1007700006C06E5F01C06F5F7F4F8F4F9F4F9E938C
:100780008E937E936E9308958091E2029091E3029E
:100790000C9482038091E4029091E5020C94820310
:1007A000EF92FF920F931F93CF93811135C00DEB02
:1007B00010E088ECE82EF12CC8EC80910F03823019
:1007C00008F05DC0F89484E093E00E948203809179
:1007D0000B0390910C03A0910D03B0910E0378943C
:1007E00089319C4FAF4FBF4F09F03CC061E086E0BC
:1007F0000E94F802F8018491833009F461C008F086
:1008000040C0813009F44EC0823009F454C061E028
:1008100086E00E94B7014AC080910F03823000F544
:10082000F89484E093E00E94820380910B039091FE
:100830000C03A0910D03B0910E03789489319C4F65
:10084000AF4FBF4F79F461E086E00E94F80260E0AC
:1008500086E00E94B70168EC85E00E94B701DCCF1A
:10086000F894E3CF60E085E00E94B70160E086E0A5
:10087000CF911F910F91FF90EF900C94B701F894D6
:10088000A6CF873039F1883069F1843009F0BFCFC5
:1008900080918000806280938000F0928B00E092D3
:1008A0008A0004C084B5806884BDC7BD60E085E06F
:1008B0000E94B70182CF84B5806284BDC8BDF6CFE7
:1008C00080918000806880938000F0928900E0929F
:1008D0008800ECCF8091B00080688093B000C09316
:1008E000B300E4CF8091B00080628093B000C093E9
:1008F000B400DCCFFC0101900020E9F73197AF0193
:10090000481B590BBC0185E492E00C94AA008F921D
:100910009F92AF92BF920F931F93CF93DF93CDB768
:10092000DEB7A1970FB6F894DEBF0FBECDBF19A2F8
:10093000423008F44AE08E010F5D1F4F842E912C47
:10094000B12CA12CA50194010E948611E62FB901BA
:10095000CA01EA30F4F4E05DD801EE938D01232B57
:10096000242B252B79F790E080E0109719F0CD012A
:100970000E947A04A1960FB6F894DEBF0FBECDBFD9
:10098000DF91CF911F910F91BF90AF909F908F906B
:100990000895E95CE1CFCF92DF92EF92FF92CF937F
:1009A000DF936B017C016DE285E492E00E944A01D5
:1009B000EC0166277727CB016C197D098E099F0909
:1009C0004AE00E9487048C0F9D1FDF91CF91FF901A
:1009D000EF90DF90CF900895CF93DF930E947A0439
:1009E000EC018EE191E00E947A048C0F9D1FDF9153
:1009F000CF91089561E08AE00E94B7016AE070E05B
:100A000080E090E00E944E0361E08FE00E94B70119
:100A100060E080E10E94B70181E291E00C94EC0477
:100A200060E08AE00E94B7016AE070E080E090E058
:100A30000E944E0360E08FE00E94B70161E080E118
:100A40000E94B7018BE291E00C94EC044F925F920C
:100A50006F927F928F929F92AF92BF92CF92DF92CE
:100A6000EF92FF920F931F93CF936B017C01742E33
:100A7000AC019B010E948111882399F083E391E0EE
:100A8000CF911F910F91FF90EF90DF90CF90BF908B
:100A9000AF909F908F907F906F905F904F900C944D
:100AA0007A0446015701E894B7F82FEF3FEF4FE77C
:100AB0005FE7C501B4010E94811181110DC02FEFC4
:100AC0003FEF4FE75FE7C501B4010E94EF0E181634
:100AD0001CF487E391E0D4CF2FEF3FEF4FE75FE4C3
:100AE000C701B6010E947C1118161CF48BE391E03B
:100AF000C7CF2FEF3FEF4FE75FECC701B6010E9472
:100B0000EF0E87FDF3CF20E030E0A901C701B60169
:100B10000E94EF0E10E000E087FF0AC06DE285E45E
:100B200092E00E944A018C01F7FAF094F7F8F094F1
:100B3000C0E060E070E080E09FE37C1641F020E0E0
:100B400030E040E251E40E94D410CF5FF6CFA7011D
:100B500096010E9468102B013C010E944D114B012F
:100B60005C014AE00E9487047C01E00EF11ECC2368
:100B7000C1F1C501B4010E94F40E9B01AC01C30197
:100B8000B2010E9467104B015C016EE285E492E0C5
:100B90000E944A01E80EF91EC15018F120E030E031
:100BA00040E251E4C501B4010E94550F2B013C0104
:100BB0000E944D114B01B12CA12C4AE0C501B4019A
:100BC0000E948704E80EF91EC501B4010E94F40ECC
:100BD0009B01AC01C301B2010E9467104B015C0193
:100BE000DBCFC701CF911F910F91FF90EF90DF9066
:100BF000CF90BF90AF909F908F907F906F905F90BD
:100C00004F90089542E00C9426050C947A04CF93FB
:100C1000DF93CDB7DEB7C655D2400FB6F894DEBF2E
:100C20000FBECDBF64E670E080E090E00E944E030E
:100C300000E010E0312C212C02C0102F01E085E4EF
:100C400092E00E94080118161906CCF785E492E09C
:100C50000E94E6008A3019F08D3009F067C4211433
:100C6000310409F45EC4E1E0F0E0EC0FFD1FE20D99
:100C7000F31D10828FE391E00E940506CE010196DC
:100C80000E94EC0490E080E08C010F5F1F4FE1E0D8
:100C9000F0E0EC0FFD1FE80FF91F2081273481F0F1
:100CA00034F4243409F09DC30E94FA049AC32D340D
:100CB00009F4AFC3253509F094C30E94100591C310
:100CC0009C012E5F3F4FCD5ADD4F39832883C3559A
:100CD000D240E1E0F0E0EC0FFD1FE00FF11F80815A
:100CE000CF5FDD4F8883C150D240CE5FDD4F188289
:100CF000C250D240CE018F5F9D4F0E94580D029787
:100D000008F069C368E570E0EE24E394F12CEC0E82
:100D1000FD1ECD5ADD4F88819981C355D240E80E22
:100D2000F91EC7010E94AE118C0169E570E0C70190
:100D30000E94AE11009709F011C2C80101960E94ED
:100D4000540D162F072FCB5BDD4F8883C554D2403F
:100D5000CA5BDD4F9883C654D24090913402C95B80
:100D6000DD4F9883C754D240A0913502C85BDD4F58
:100D7000A883C854D240B0913602C75BDD4FB88318
:100D8000C954D240E0913702C65BDD4FE883CA54B4
:100D9000D2408BE491E00E940506612F702FCB5B5F
:100DA000DD4F8881C554D240CA5BDD4F9881C6545F
:100DB000D2400E94020686E591E00E940506C95BCA
:100DC000DD4F6881C754D240C85BDD4F7881C8547D
:100DD000D240C75BDD4F8881C954D240C65BDD4F2E
:100DE0009881CA54D2400E94020680E291E00E949B
:100DF000EC0420E030E048E452E4612F702FCB5B3C
:100E0000DD4F8881C554D240CA5BDD4F9881C654FE
:100E1000D2400E947C1187FFF5C120E030E0A9019B
:100E2000612F702FCB5BDD4F8881C554D240CA5BE8
:100E3000DD4F9881C654D2400E94EF0E18160CF078
:100E4000E8C1812E902ECB5BDD4FA880C554D240E7
:100E5000CA5BDD4FB880C654D24020E030E048E4A1
:100E600052E4C95BDD4F6881C754D240C85BDD4F97
:100E70007881C854D240C75BDD4F8881C954D240C5
:100E8000C65BDD4F9881CA54D2400E947C1187FF17
:100E9000C5C120E030E0A901C95BDD4F6881C754BE
:100EA000D240C85BDD4F7881C854D240C75BDD4F6C
:100EB0008881C954D240C65BDD4F9881CA54D24064
:100EC0000E94EF0E18160CF0B0C1C95BDD4FC88050
:100ED000C754D240C85BDD4FD880C854D240C75BEE
:100EE000DD4FE880C954D240C65BDD4FF880CA545C
:100EF000D24088E591E00E9405066091EA02709177
:100F0000EB028091EC029091ED020E94020686E5D0
:100F100091E00E9405066091E6027091E7028091DF
:100F2000E8029091E9020E94020680E291E00E94AC
:100F3000EC0485E691E00E940506B401C5010E941B
:100F4000020686E591E00E940506B601C7010E94EF
:100F5000020680E291E00E94EC0427E339E84DE1CB
:100F600050E4B401C5010E94550F0E944611072E9E
:100F7000000C880B990B0E94F60EC55BDD4F688351
:100F800079838A839B83CB54D2402BE13DE042EDB1
:100F900052E4B601C7010E94550F0E944611072E68
:100FA000000C880B990B0E94F60EC15BDD4F688325
:100FB00079838A839B83CF54D2408090EA029090B9
:100FC000EB02A090EC02B090ED024090E60250904F
:100FD000E7026090E8027090E902A5019401C55B08
:100FE000DD4F688179818A819B81CB54D2400E94F8
:100FF00067106B017C0120E030E0A9010E947C11A8
:1010000018160CF017C1C701B6010E944611CF5B3C
:10101000DD4F688379838A839B83C154D240A301C7
:101020009201C15BDD4F688179818A819B81CF54B8
:10103000D2400E9467106B017C0120E030E0A901E2
:101040000E947C1118160CF0F9C0C701B6010E946D
:1010500046116B017C0131E0CB5ADD4F3883C55519
:10106000D240A5019401C55BDD4F688179818A81F9
:101070009B81CB54D2400E947C1118162CF0CB5A85
:10108000DD4F1882C555D24081E0CA5ADD4F8883B2
:10109000C655D240A3019201C15BDD4F68817981C1
:1010A0008A819B81CF54D2400E947C1118162CF06B
:1010B000CA5ADD4F1882C655D240CF5BDD4F8881BA
:1010C0009981AA81BB81C154D240812C912C5401B9
:1010D000412C512C3201C816D906EA06FB060CF049
:1010E000B1C0CF5BDD4F88819981AA81BB81C1549A
:1010F000D240481659066A067B060CF0D7C0CB5A78
:10110000DD4F8881C555D2400E94D0038C0C9D1CB8
:10111000AE1CBF1CCF5BDD4F88819981AA81BB814A
:10112000C154D24088169906AA06BB065CF0881AFC
:10113000990AAA0ABB0ACA5ADD4F8881C655D2400D
:101140000E94A0026AE070E080E090E00E944E03FE
:101150009FEF491A590A690A790AC3CF0196011506
:10116000110549F50E94540DC95BDD4F6883C754D2
:10117000D240C85BDD4F7883C854D240C75BDD4F97
:101180008883C954D240C65BDD4F9883CA54D2408D
:101190001091300200913102F0913202CB5BDD4FB1
:1011A000F883C554D24020913302CA5BDD4F2883B7
:1011B000C654D240EECD0E94540DC95BDD4F68830A
:1011C000C754D240C85BDD4F7883C854D240C75B58
:1011D000DD4F8883C954D240C65BDD4F9883CA5423
:1011E000D240C80101960E94540D162F072FCB5BE9
:1011F000DD4F8883C554D240CA5BDD4F9883C65407
:10120000D240C7CD812C912C28E4A22E32E4B32EFB
:1012100024CE812C912CA12CB12C1FCEC12CD12CF1
:1012200088E4E82E92E4F92E64CEC12CD12CE12C76
:10123000F12C5FCEC701B6019058E7CEC701B601C9
:10124000905805CF4C145D046E047F047CF5CA5A97
:10125000DD4F8881C655D2400E94A002CF5BDD4F92
:1012600088819981AA81BB81C154D240880E991E80
:10127000AA1EBB1E8C149D04AE04BF045CF08C1827
:101280009D08AE08BF08CB5ADD4F8881C555D240B6
:101290000E94D0036AE070E080E090E00E944E037C
:1012A0009FEF491A590A690A790ACCCF8EE691E074
:1012B0000E940506CF5BDD4F88819981AA81BB81A1
:1012C000C154D240B7FF93C0BC01CD010E94CB04F2
:1012D00086E591E00E940506F7FE95C0C701B601BC
:1012E0000E94CB0480E291E00E94EC0486E791E04A
:1012F0000E940506C55BDD4F688179818A819B81EB
:10130000CB54D2400E94020686E591E00E94050679
:10131000C15BDD4F688179818A819B81CF54D24046
:101320000E94020681E891E00E94EC0460E070E017
:10133000CB010E944E03C55BDD4F88819981AA8154
:10134000BB81CB54D2408093EA029093EB02A093EE
:10135000EC02B093ED02C15BDD4F88819981AA81D7
:10136000BB81CF54D2408093E6029093E702A093D2
:10137000E802B093E902812F902FCB5BDD4FA8816B
:10138000C554D240CA5BDD4FB881C654D240809369
:10139000300290933102A0933202B0933302C95BC2
:1013A000DD4F8881C754D240C85BDD4F9881C85457
:1013B000D240C75BDD4FA881C954D240C65BDD4F28
:1013C000B881CA54D2408093340290933502A093DE
:1013D0003602B0933702CD5ADD4F08811981C355CB
:1013E000D240021513050CF09CC0C8014DCC4AE058
:1013F000CF5BDD4F688179818A819B81C154D24066
:101400000E94870465CF4AE0C701B6010E948704A5
:1014100069CFE1E0F0E0EC0FFD1FE00FF11F20814C
:10142000CF5FDD4F2883C150D240E3E0F0E0EC0F06
:10143000FD1FE80FF91F2081CE5FDD4F2883C250CA
:10144000D2408C010C5F1F4FA4E0B0E0AC0FBD1F79
:101450008A0F9B1FFC018081CD5FDD4F8883C350C5
:10146000D240CC5FDD4F1882C450D240CE018F5F96
:101470009D4F0E94580D8237910539F18C32914071
:1014800009F045C063E570E081E090E08C0F9D1F9E
:10149000800F911F0E94AE1101960E94540D6B01A6
:1014A0007C0120E030E040EF51E40E94EF0E882301
:1014B00009F4FACB20E030E048E452E4C701B60179
:1014C0000E94EF0E81118DCFF8CB83E891E00E944E
:1014D0000506609130027091310280913202909144
:1014E00033020E9402068CE991E00E940506609199
:1014F000340270913502809136029091370242E0B9
:101500000E9426058EE191E00E947A046ACF86EA65
:1015100091E00E940506CE018F5F9D4F0E94EC0472
:1015200060CF81EC91E00E94EC0482CB111102C0EB
:10153000002329F0893209F082CB10E080CB813280
:10154000E4F38F32D1F311E0883209F478CB8B3396
:1015500009F473CB2FEF221621E032062CF084EC35
:1015600091E00E94EC04E9CF91012F5F3F4F9FE98A
:10157000980FE1E0F0E0EC0FFD1FE20DF31D9A3152
:1015800008F48052808310E0190159CB1F920F920A
:101590000FB60F9211242F933F934F935F936F9346
:1015A0007F938F939F93AF93BF93EF93FF9385E4C4
:1015B00092E00E942801FF91EF91BF91AF919F911E
:1015C0008F917F916F915F914F913F912F910F90EC
:1015D0000FBE0F901F9018951F920F920FB60F928B
:1015E00011242F938F939F93EF93FF93E0915502D4
:1015F000F09156028081E0915B02F0915C0282FDE5
:101600001BC0908180915E028F5F8F7320915F027B
:10161000821741F0E0915E02F0E0EB5BFD4F958FA9
:1016200080935E02FF91EF919F918F912F910F9088
:101630000FBE0F901F9018958081F4CF1F920F92CC
:101640000FB60F9211242F933F938F939F93AF93D5
:10165000BF9380913D0290913E02A0913F02B091D4
:10166000400230913C0223E0230F2D3758F50196BC
:10167000A11DB11D20933C0280933D0290933E0238
:10168000A0933F02B09340028091410290914202A8
:10169000A0914302B09144020196A11DB11D809317
:1016A000410290934202A0934302B0934402BF913F
:1016B000AF919F918F913F912F910F900FBE0F90FF
:1016C0001F90189526E8230F0296A11DB11DD2CFB9
:1016D0001F920F920FB60F9211242F933F934F93A7
:1016E0005F936F937F938F939F93AF93BF93EF938A
:1016F000FF93E0910201F09103010995FF91EF91B1
:10170000BF91AF919F918F917F916F915F914F9119
:101710003F912F910F900FBE0F901F9018951F9221
:101720000F920FB60F9211242F933F934F935F9315
:101730006F937F938F939F93AF93BF93EF93FF9399
:10174000E0910001F09101010995FF91EF91BF91A6
:10175000AF919F918F917F916F915F914F913F9149
:101760002F910F900FBE0F901F9018950F931F93FE
:10177000CF93DF93109248021092470288EE93E0D5
:10178000A0E0B0E08093490290934A02A0934B02FC
:10179000B0934C0280E191E0909346028093450221
:1017A00085EC90E0909352028093510284EC90E09B
:1017B000909354028093530280EC90E090935602F1
:1017C0008093550281EC90E09093580280935702E9
:1017D00082EC90E090935A028093590286EC90E05C
:1017E00090935C0280935B0210925E0210925F0203
:1017F000109260021092610262E082E00E94F802A0
:1018000062E083E00E94F802EBEEF0E0E491F0E0A9
:10181000EE0FFF1FE152FF4FA591B491B093050366
:10182000A0930403EDECF0E0449140930803ECEE48
:10183000F0E0E491F0E0EE0FFF1FE152FF4FC591A1
:10184000D491D0930703C0930603EEECF0E0E4914B
:10185000E093090310920B0310920C0310920D03F6
:1018600010920E032BE33FE1C9010197F1F79C9120
:10187000842F892391E009F490E08881E82309F01E
:10188000926024E033E090930A033093E3022093C4
:10189000E20284EC93E09093010180930001809137
:1018A00069008C7F816080936900E89A81E0809371
:1018B0000F033093E5022093E4028AEC93E09093C7
:1018C00003018093020180916900837F846080938B
:1018D0006900E99A82E080930F0388E0E4E0F1E098
:1018E000AEEEB2E001900D928A95E1F71092F70208
:1018F0001092F60280E090E19093F9028093F80252
:1019000084E893E09093FB028093FA028FEF9FEFBD
:101910009093FD028093FC02109203031092020345
:10192000CEEED2E006EF12E08881229661E00E94BE
:10193000F8020C171D07C1F71092EA021092EB0291
:101940001092EC021092ED021092E6021092E70261
:101950001092E8021092E902DF91CF911F910F914E
:101960000895789484B5826084BD84B5816084BD17
:1019700085B5826085BD85B5816085BDEEE6F0E008
:10198000808181608083E1E8F0E010828081826064
:101990008083808181608083E0E8F0E080818160E5
:1019A0008083E1EBF0E0808184608083E0EBF0E015
:1019B000808181608083EAE7F0E0808184608083B9
:1019C0008081826080838081816080838081806863
:1019D00080831092C100E5E4F2E0A089B18982E041
:1019E0008C93A485B5851C92A685B7858FEC8C93C6
:1019F000108EA489B58986E08C93A289B3898C91D5
:101A000080618C93A289B3898C9188608C93A28920
:101A1000B3898C9180688C930288F389E02D808152
:101A20008F7D808361E08AE00E94F80260E08AE0B6
:101A30000E94B70164E670E080E090E00E944E03EF
:101A400080EE91E00E94EC0484E092E00E940506A2
:101A500060E070E0CB010E94020685E192E00E9406
:101A6000050660E070E088E492E40E9402068AE1E4
:101A700092E00E94EC048FE192E00E94050660E093
:101A800070E0CB010E94020685E192E00E9405060B
:101A900060E070E088E492E40E9402068AE192E04D
:101AA0000E94EC040E940706662777270C947E0D9F
:101AB000FC0188279927E89421912032E9F3293005
:101AC00010F02E30C8F32B3241F02D3239F46894E7
:101AD00004C00E94760D820F911D219120532A305F
:101AE000C0F31EF4909581959F4F08957AE0979FDB
:101AF000902D879F802D910D11240895B0E0A0E0D6
:101B0000E4E8FDE00C9427105C017B016115710590
:101B100019F0DB018D939C9385010F5F1F4FF50139
:101B2000D0818D2F90E00E94CE0E6C01892BB9F5EB
:101B3000DD32B9F50F5F1F4FD5011196DC91C1E081
:101B40005801F1E0AF1AB10843E050E060E770E0FF
:101B5000C5010E94D70E892B69F5680182E0C80E85
:101B6000D11C45E050E06BE670E0C6010E94D70E44
:101B7000892B21F4680197E0C90ED11CE114F1040E
:101B800019F0D701CD92DC9260E070E080E89FEF21
:101B9000C111FFC060E070E080E89FE7FAC0580123
:101BA000BBCFDB3229F485010E5F1F4FF501D181D8
:101BB000C0E0C6CF43E050E068E670E0C5010E9497
:101BC000D70E892BE9F0F80110E000E020E030E0CA
:101BD000A9015F01B0ED8B2E8D0E89E08815C8F14B
:101BE0009C2E689491F88C2F8870C2FF16C08111CA
:101BF00002C00F5F1F4F3196D501DC91C92DE9CF8F
:101C0000E114F10429F00E5F1F4FF70111830083E7
:101C100060E070E080EC9FE7BCC0882311F00150C9
:101C20001109A5E0B0E00E9416109B01AC01220F43
:101C3000331F441F551F280D311D411D511D2839CB
:101C400099E93907490799E15907A8F2C6609C2E1E
:101C5000D2CFAEEF8A1206C0C3FD3CC09C2E689462
:101C600093F8C9CFDF7DD534A9F580818D3239F461
:101C7000C061DF011296818162E070E006C0DF0181
:101C80008B32C1F3119661E070E080535D01A61ABA
:101C9000B70A8A30F8F4E0E8CE16ECE0DE065CF431
:101CA000B601660F771F660F771FC60ED71ECC0CC6
:101CB000DD1CC80ED11C5D01FFEFAF1ABF0A8C916D
:101CC00080538A30A8F1C4FF03C0D194C194D108D5
:101CD0000C0D1D1DC1FF09C0E114F10431F081E0BC
:101CE000A81AB108D701AD92BC92CA01B9010E94ED
:101CF000F40EC370C33009F490584B015C0120E02E
:101D000030E0A9010E94EF0E882309F440C0CFE91A
:101D1000D0E017FF05C0119501951109C7E8D0E083
:101D20006E01B8E1CB1AD10880E2E82EF12C0FC089
:101D3000D501B1CFFE0125913591459154910E19F0
:101D40001F09C501B4010E94550F4B015C01D5016B
:101D5000C4010E151F0574F72497F594E794CC166B
:101D6000DD06A9F78A2F880F8B2F881F8F3F49F038
:101D700020E030E0A901C501B4010E94EF0E8111FD
:101D800006C082E290E09093110380931003C50196
:101D9000B401CDB7DEB7ECE00C94431091110C9474
:101DA000C20F803219F089508550C8F70895FB01A1
:101DB000DC014150504088F08D9181341CF08B350E
:101DC0000CF4805E659161341CF06B350CF4605E40
:101DD000861B611171F3990B0895881BFCCF0E943B
:101DE000310F08F481E00895E89409C097FB3EF4B0
:101DF00090958095709561957F4F8F4F9F4F992358
:101E0000A9F0F92F96E9BB279395F69587957795D5
:101E10006795B795F111F8CFFAF4BB0F11F460FF95
:101E20001BC06F5F7F4F8F4F9F4F16C0882311F0ED
:101E300096E911C0772321F09EE8872F762F05C001
:101E4000662371F096E8862F70E060E02AF09A959C
:101E5000660F771F881FDAF7880F9695879597F991
:101E60000895990F0008550FAA0BE0E8FEEF16162B
:101E70001706E807F907C0F012161306E407F5077E
:101E800098F0621B730B840B950B39F40A2661F0F2
:101E9000232B242B252B21F408950A2609F4A14095
:101EA000A6958FEF811D811D08950E94680F0C94E7
:101EB000DC0F0E94CE0F38F00E94D50F20F0952342
:101EC00011F00C94C50F0C94CB0F11240C9410102E
:101ED0000E94ED0F70F3959FC1F3950F50E0551FD1
:101EE000629FF001729FBB27F00DB11D639FAA276F
:101EF000F00DB11DAA1F649F6627B00DA11D661FBE
:101F0000829F2227B00DA11D621F739FB00DA11DDE
:101F1000621F839FA00D611D221F749F3327A00D98
:101F2000611D231F849F600D211D822F762F6A2F34
:101F300011249F5750409AF0F1F088234AF0EE0F99
:101F4000FF1FBB1F661F771F881F91505040A9F7C6
:101F50009E3F510580F00C94C50F0C9410105F3F0C
:101F6000E4F3983ED4F3869577956795B795F79502
:101F7000E7959F5FC1F7FE2B880F911D969587957A
:101F800097F9089599278827089597F99F6780E81A
:101F900070E060E008959FEF80EC089500240A94BB
:101FA0001616170618060906089500240A94121634
:101FB0001306140605060895092E0394000C11F467
:101FC000882352F0BB0F40F4BF2B11F460FF04C014
:101FD0006F5F7F4F8F4F9F4F089557FD9058440F6D
:101FE000551F59F05F3F71F04795880F97FB991F78
:101FF00061F09F3F79F08795089512161306140635
:10200000551FF2CF4695F1DF08C0161617061806C1
:10201000991FF1CF86957105610508940895E8949C
:10202000BB2766277727CB0197F908950E945810A0
:10203000A59F900DB49F900DA49F800D911D11241C
:1020400008952F923F924F925F926F927F928F925C
:102050009F92AF92BF92CF92DF92EF92FF920F9337
:102060001F93CF93DF93CDB7DEB7CA1BDB0B0FB641
:10207000F894DEBF0FBECDBF09942A8839884888FE
:102080005F846E847D848C849B84AA84B984C88494
:10209000DF80EE80FD800C811B81AA81B981CE0F8B
:1020A000D11D0FB6F894DEBF0FBECDBFED01089570
:1020B000A29FB001B39FC001A39F700D811D112489
:1020C000911DB29F700D811D1124911D08955058CE
:1020D000BB27AA270E947F100C94DC0F0E94CE0F12
:1020E00038F00E94D50F20F039F49F3F19F426F400
:1020F0000C94CB0F0EF4E095E7FB0C94C50FE92F81
:102100000E94ED0F58F3BA1762077307840795070B
:1021100020F079F4A6F50C940F100EF4E0950B2E38
:10212000BA2FA02D0B01B90190010C01CA01A00129
:102130001124FF27591B99F0593F50F4503E68F184
:102140001A16F040A22F232F342F4427585FF3CFC5
:10215000469537952795A795F0405395C9F77EF496
:102160001F16BA0B620B730B840BBAF09150A1F0DF
:10217000FF0FBB1F661F771F881FC2F70EC0BA0F65
:10218000621F731F841F48F4879577956795B795ED
:10219000F7959E3F08F0B0CF9395880F08F09927E8
:1021A000EE0F9795879508950E94E8100C94DC0F28
:1021B0000E94D50F58F00E94CE0F40F029F45F3FE7
:1021C00029F00C94C50F51110C9410100C94CB0FE6
:1021D0000E94ED0F68F39923B1F3552391F3951BFA
:1021E000550BBB27AA2762177307840738F09F5F38
:1021F0005F4F220F331F441FAA1FA9F335D00E2EA5
:102200003AF0E0E832D091505040E695001CCAF711
:102210002BD0FE2F29D0660F771F881FBB1F2617D4
:1022200037074807AB07B0E809F0BB0B802DBF01AB
:10223000FF2793585F4F3AF09E3F510578F00C947A
:10224000C50F0C9410105F3FE4F3983ED4F38695CD
:1022500077956795B795F7959F5FC9F7880F911D9B
:102260009695879597F90895E1E0660F771F881F87
:10227000BB1F621773078407BA0720F0621B730B3A
:10228000840BBA0BEE1F88F7E09508950E944D115C
:102290006894B1110C94101008950E94F50F88F005
:1022A0009F5798F0B92F9927B751B0F0E1F0660F1A
:1022B000771F881F991F1AF0BA95C9F714C0B1305B
:1022C00091F00E940F10B1E008950C940F10672F49
:1022D000782F8827B85F39F0B93FCCF3869577958A
:1022E0006795B395D9F73EF4909580957095619573
:1022F0007F4F8F4F9F4F08950E94310F08F48FEF4B
:1023000008950E94310F880B990B0895A1E21A2EAF
:10231000AA1BBB1BFD010DC0AA1FBB1FEE1FFF1F89
:10232000A217B307E407F50720F0A21BB30BE40BD9
:10233000F50B661F771F881F991F1A9469F7609520
:102340007095809590959B01AC01BD01CF010895DA
:10235000EE0FFF1F0590F491E02D0994FC0181918F
:10236000861721F08823D9F7992708953197CF014F
:062370000895F894FFCF70
:1023760081038103080009000A000B000000000029
:102386004A01AA00D70097010801E600FA000D0AE3
:102396000050656E20646F776E2E0050656E207556
:1023A6007021006E616E00696E66006F766600527F
:1023B60065636569766564203A20006678312C206D
:1023C6006679313A20002C0058706F732C205970B2
:1023D6006F733A200078312C2079313A20006478E6
:1023E6002C2064793A00476F696E6720746F202845
:1023F6000029004162736F6C75746520706F736994
:1024060074696F6E203A2058203D200020202D2030
:102416002059203D2000436F6D6D616E64206E6F04
:1024260074207265636F676E697A6564203A204D21
:10243600006F6B004552524F52202D206C696E651D
:10244600427566666572206F766572666C6F770098
:102456004D696E6920434E4320506C6F74746572EB
:1024660020616C69766520616E64206B69636B69B7
:102476006E672100582072616E6765206973206659
:10248600726F6D200020746F2000206D6D2E005934
:102496002072616E67652069732066726F6D200019
:00000001FF
